:020000040800F2
:10000000D00B0020F101000865500008E34400080F
:1000100061500008910900083D69000800000000D7
:10002000000000000000000000000000DD54000897
:100030007D0A00080000000069500008DF54000835
:100040000B0200080B0200080B0200080B0200085C
:100050000B0200080B0200080B0200080B0200084C
:100060000B0200080B0200080B02000895090008AB
:10007000A5090008B5090008C50900080B02000819
:100080000B02000800000000A10700080B02000896
:100090000B0200080B0200080B0200080B0200080C
:1000A0000B0200080B0200080B0200080B020008FC
:1000B0000B0200080B0200080B0200080B020008EC
:1000C0000B0200080B0200080B0200080B020008DC
:1000D0000B0200082D6900080B0200080B02000843
:1000E0000B0200080B0200080B0200080B020008BC
:1000F0000B0200080B0200080B02000800000000C1
:10010000000000000B020008000000000B020008C5
:100110000B020008000000000B0200080B020008A0
:100120000B0200080B0200080B0200080B0200087B
:100130000B02000800000000000000000B02000895
:100140000B0200080B020008000000000000000085
:10015000000000000000000000000000000000009F
:100160000000000000000000000000000B0200087A
:100170000B0200080000000000000000000000006A
:10018000000000000B02000800000000000000005A
:10019000000000000000000000000000000000005F
:1001A00000000000000000000B0200080B02000825
:1001B0000B0200080B0200080B0200080000000000
:1001C000000000000B02000800000000000000001A
:1001D0000B0200080B020008DFF810D000F05EFAF6
:1001E000004800473D750008AFF30080D00B0020A9
:1001F0000648804706480047FEE7FEE7FEE7FEE7C1
:10020000FEE7FEE7FEE7FEE7FEE7FEE751550008E2
:10021000D90100082DE9F05F0546002092469B4673
:1002200088460646814640241BE02846414647460C
:10023000224600F06AF853465A46C01A914110D33C
:1002400011461846224600F051F82D1A67EB0108B6
:100250004F4622460120002100F048F817EB000924
:100260004E41201EA4F10104DFDC484631462A46F7
:100270004346BDE8F09FD2B201E000F8012B491ED1
:10028000FBD270470022F6E710B513460A46044633
:100290001946FFF7F0FF204610BD00F0004230F095
:1002A00000400AD0C10D01F56071C0F3160042EAAA
:1002B0000151C208400711437047002001467047B2
:1002C00030B50B46014600202022012409E021FA26
:1002D00002F59D4205D303FA02F5491B04FA02F523
:1002E0002844151EA2F10102F1DC30BD202A04DBF6
:1002F000203A00FA02F1002070479140C2F1200339
:1003000020FA03F3194390407047202A04DB203A77
:1003100021FA02F00021704721FA02F3D040C2F125
:10032000200291400843194670472DE9FE4F804650
:1003300081EA0300C00F0C46009021F0004123F039
:100340000045B8EB0200A94105D24046214690463F
:100350001C460B46024623F00040104347D0270DB1
:10036000C7F30A00C3F30A510290401A01904028D3
:100370006BDAC3F3130040F4801B0098924620B15F
:100380000023D2EB030A63EB0B0B01985946C0F133
:1003900040025046FFF7AAFF06460D465046594612
:1003A000019A00F08DF910EB08006141002487EA02
:1003B000115284EAE7731A4340D0009A62B3019A5B
:1003C000012A4FEA075215DC001B61EB02014FF0D6
:1003D000004202EA0752CDE90042001C41F58011BB
:1003E00032462B4600F08DF903B0BDE8F08F404651
:1003F0002146F9E7001B61EB0201001C41F5801367
:1004000000185B412018A2F5001747EB030140EAF2
:10041000D570B6196D4111E06D084FEA360645EA10
:10042000C0754FEA0752001B61EB0201001C41F549
:10043000801149084FEA30000019514132462B46DD
:1004400003B0BDE8F04F00F04DB900980122400024
:100450000023D0EB020263EBE073009821464FEAE1
:10046000E074B8EB000061EB0401E9E783F00043BE
:100470005BE781F0004158E72DE9FE4F81EA030474
:1004800004F0004421F0004100944FF0000B23F0F1
:10049000004350EA01045ED052EA03045BD0C3F388
:1004A0000A54C1F30A552C44A4F2F3340194A0FB7E
:1004B0000254C1F3130141F48011C3F3130343F455
:1004C000801301FB024400FB034E840A970A44EAAE
:1004D000815447EA8357A4FB076802958D0A05FB00
:1004E00007854FEA932C04FB0C542705029D4FEA25
:1004F000065847EA1637B5EB08056EEB070C870E72
:10050000920E47EA811742EA8312A7FB0201B6EB7B
:100510000B0164EB00042B0D43EA0C335E1844EB33
:100520001C50DA465146E7FB0201C5F313044FEABB
:100530000B3343EA14534FEA0432019C43EA0603A7
:10054000A4F10C040294009CCDE900B400F0D9F8A9
:1005500003B0BDE8F08F00200146F9E72DE9F04D2A
:1005600081EA030404F0004B21F0004514464FF0EB
:10057000000A23F0004150EA050220D054EA0102AB
:100580001DD0C5F30A570246C5F31303C1F3130088
:10059000C1F30A5640F4801543F48013A7EB060814
:1005A000101BD64608F2FD3873EB050002D308F1A4
:1005B000010801E092185B41B8F1000F03DA002056
:1005C0000146BDE8F08D00204FF4801106468446B8
:1005D0000EE0171B73EB050705D3121B63EB050336
:1005E00006434CEA010C49084FEA300092185B417F
:1005F00050EA0107EDD152EA030012D082EA04006A
:1006000083EA0501084305D0101BAB4106D2012245
:10061000002306E000224FF0004302E06FF00102E9
:1006200053101AEB06004CEB085110EB0A0041EB9B
:100630000B01BDE8F04D00F055B8C1F30A52C1F30B
:10064000130140F2FF3341F480119A4202DA002094
:100650000146704740F233439A42A2F2334202DC31
:100660005242FFF752BEFFF741BE000030B5041EF4
:1006700071F1000404DB4FF00044404264EB0101DF
:10068000141E73F1000405DB1C464FF00043524278
:1006900063EB0403994208BF904230BD064C074DFE
:1006A00006E0E06840F0010394E807009847103442
:1006B000AC42F6D3FFF794FD7489000894890008D2
:1006C000202A06DBCB17203A41FA02F043EAE07316
:1006D00006E041FA02F3D040C2F120029140084303
:1006E0001946704710B5141E73F1000408DA401C57
:1006F00041F1000192185B411A4301D120F0010041
:1007000010BD2DE9F04D92469B4611B1B1FA81F230
:1007100002E0B0FA80F220329046FFF7E7FD04468F
:100720000F4640EA0A0041EA0B0153465A46084385
:1007300013D0114653EA010019D0C8F140025046C7
:10074000FFF7E3FD05460E46504659464246FFF781
:10075000CDFD084305D0012004E020463946BDE820
:10076000F08D0020054346EAE0762C4337430A9893
:100770006305E40AA0EB08000022FD0A44EA47549E
:100780000A3002D500200146E9E701051019694148
:10079000DDE9084500196941BDE8F04DA2E7000018
:1007A00010B5034800F0EAFC024800F0E7FC10BD79
:1007B000B40000202001002070B50546AC6AE06D51
:1007C00000F0500098BBE06D40F40070E0652068D8
:1007D000006800F00800A8B1206804F010F910B318
:1007E0002068C06800F40050E8B9E06D20F4807023
:1007F000E065E06D00F48050A8B9E06D40F00100C4
:10080000E06510E02068C06800F0020058B9E06DB3
:1008100020F48070E065E06D00F4805018B9E06D60
:1008200040F00100E065204600F0A4FC0CE0FFE78A
:10083000E06D00F0100018B1204600F09DFC03E0D0
:10084000606D416B2846884770BD70B50546AC6A3F
:10085000E06D40F04000E065206E40F0040020664E
:10086000204600F089FC70BD70B50446A56A284694
:1008700000F081FC70BD000070B50446206804F0F3
:10088000A0F80646206804F0A1F898B396BB20684B
:10089000806800F00D0001280AD1206881681A4A9A
:1008A0001140891C816000BF03202168086009E0B5
:1008B000E06D40F01000E065206E40F00100206621
:1008C000012070BD01F072FB054614E001F06EFBE3
:1008D000401B02280FD92068806800F0010050B149
:1008E000E06D40F01000E065206E40F001002066F1
:1008F0000120E6E705E02068806800F0010000289C
:10090000E4D10020DDE70000C0FFFF7F70B50446A2
:10091000206804F05BF8002836D1206880681B4905
:10092000084048B1E06D40F01000E065206E40F0F6
:1009300001002066012070BD206804F027F801F056
:1009400035FB05461AE0206804F040F810B920682D
:1009500004F01CF801F02AFB401B02280ED9206885
:10096000006800F0010048B9E06D40F01000E0655B
:10097000206E40F0010020660120DCE7206800685E
:1009800000F001000028DED00020D4E73F00008006
:1009900000BFFEE710B5024801F0B1F810BD00003D
:1009A000C804002010B5024801F0A9F810BD0000ED
:1009B0008C01002010B5024801F0A1F810BD000024
:1009C000EC01002010B5024801F099F810BD0000BC
:1009D0005803002030B50E4D0468AC4201D20D49D9
:1009E00001E00C4920310B460478083C1425B4FB87
:1009F000F5F2446CA40803EB84048464054C803451
:100A0000C46402F01F050124AC40046530BD000041
:100A1000080402400008024001794A1E064B03EB1D
:100A200082024265044A403282654A1E02F01F0378
:100A300001229A40C26570470009024030B5D0E9F2
:100A400013546C60446D14B1D0E916546C6090F886
:100A5000444004F01F050124AC40056C6C60046840
:100A600063608468102C04D10468A2600468E160AB
:100A700003E00468A1600468E26030BD70470021B3
:100A800009E0002201E0531C9AB240F6B8339A42C2
:100A9000F9DB4B1C99B28142F3DB704772B600BFA1
:100AA000FEE70000F8B504460D460020009000BFA8
:100AB00094F85800012801D10220F8BD012084F8E3
:100AC000580000BF2046FFF7D7FE06468EBBE06DFC
:100AD00020F4885040F00200E065206881681B4ADD
:100AE000114005F0804242F000421143816000BF96
:100AF00013E00098401C00901549009888420CD3E0
:100B0000E06D20F0020040F01000E06500BF002022
:100B100084F8580000BF0120CFE720688168C90F22
:100B20000029E6D1E06D20F0020040F00100E06510
:100B300004E0FFE7E06D40F01000E06500BF00203A
:100B400084F8580000BF3046B7E70000C0FFFF3F01
:100B500002DE04007047704770477047704700001E
:100B60002DE9F0439BB004460E464FF00008306874
:100B700000B100BF00BF94F85800012803D1022043
:100B80001BB0BDE8F083012084F8580000BF0020AE
:100B9000179018902068B0F1A04F02D13148009012
:100BA00001E000200090009850B9E06D40F0200076
:100BB000E06500BF002084F8580000BF0120DFE797
:100BC000009803F017FF0746206803F013FFD8BB17
:100BD000D7BB254D306800B394F83800716841EAFE
:100BE0004030A96821F460410843A8604FF0A0405C
:100BF00003F0F1FE81461B4803F0EDFE49EA0009CF
:100C0000B9F1000F27D1B16830680843A96840F6F0
:100C10001F7291430843A8601DE0A86820F460405B
:100C2000A8604FF0A04003F0D6FE81460D4803F0C7
:100C3000D2FE49EA0009B9F1000F0CD1A86840F6CC
:100C40001F718843A86006E0FFE7E06D40F02000D8
:100C5000E0654FF0010800BF002084F8580000BF95
:100C600040468DE700010050000300502DE9F84F89
:100C700005460C464FF0000A00200090FE49E0684F
:100C8000884200D000E000BF00BF95F8580001285E
:100C900002D10220BDE8F88F012085F8580000BF7E
:100CA000286803F0A2FE00287DD12968D4E900203D
:100CB00001F1300CC0F3012B0CEB8B03D3F800C017
:100CC00000F01F0E4FF01F0B0BFA0EFB2CEA0B0C63
:100CD00000F01F0BC2F3846E0EFA0BFE4CEA0E0CF2
:100CE000C3F800C000BF286803F07FFE8146286873
:100CF00003F062FE8046B9F1000F64D1B8F1000F35
:100D0000FBD1A068B0F1004F0AD121680022286809
:100D100003F086FE4FF00041286803F0A6FE08E0CD
:100D2000A2682168286803F07BFE0021286803F090
:100D30009CFE60692968C968C1F3C101490000FAD5
:100D400001F7206904283FD028682268216900F152
:100D5000600C0CEB8103D3F800C0DFF820B30CEA81
:100D60000B0C02F0F84B4BF0004B4BEA070B4CEA34
:100D70000B0CC3F800C000BF2868A269216900F10C
:100D8000600C0CEB8103D3F800C02CF0807C4CEAA3
:100D9000020CC3F800C000BF2868227F2169012A25
:100DA00002D1520601E0C6E10022134600F1600CB8
:100DB0000CEB8102D2F800C02CF0007C4CEA030C52
:100DC000C2F800C000BFA7E00021286803F0EBFDD7
:100DD000C0F3120030B90021286803F0E4FDC0F32D
:100DE000846007E00021286803F0DDFD90FAA0F0A0
:100DF000B0FA80F02168C1F3120119B92168C1F37A
:100E0000846104E0216891FAA1F1B1FA81F188428C
:100E100004D100221146286803F01CFE0121286835
:100E200003F0C1FDC0F3120030B90121286803F0BE
:100E3000BAFDC0F3846007E00121286803F0B3FD28
:100E400090FAA0F0B0FA80F02168C1F3120119B94C
:100E50002168C1F3846104E0216891FAA1F1B1FA3B
:100E600081F1884204D100220121286803F0F2FDBB
:100E70000221286803F097FDC0F3120030B9022167
:100E8000286803F090FDC0F3846007E00221286821
:100E900003F089FD90FAA0F0B0FA80F02168C1F368
:100EA000120119B92168C1F3846104E0216891FA43
:100EB000A1F1B1FA81F1884204D10022022128680F
:100EC00003F0C8FD0321286803F06DFDC0F3120094
:100ED00030B90321286803F066FDC0F3846007E0A1
:100EE0000321286803F05FFD90FAA0F0B0FA80F0CB
:100EF0002168C1F3120119B92168C1F3846104E0CA
:100F0000216891FAA1F1B1FA81F1884204D100225D
:100F10000321286803F09EFD286803F057FD002890
:100F200072D12868E2682168D0F8B030C1F3120CA1
:100F300023EA0C0302F0180BDFF844C12CFA0BFC77
:100F40000CEA010C43EA0C03C0F8B03000BF4A4978
:100F5000E068884258D12368C3F312031BB92368A1
:100F6000C3F3846304E0236893FAA3F3B3FA83F32F
:100F70005B1C03F01F03092B3ED82368C3F3120345
:100F80001BB92368C3F3846304E0236893FAA3F3D3
:100F9000B3FA83F35B1C03F01F034FF0010C0CFA50
:100FA00003FC2368C3F312031BB92368C3F38463F0
:100FB00004E0236893FAA3F3B3FA83F35B1C03F012
:100FC0001F034CEA836C2368C3F312031BB9236825
:100FD000C3F3846304E0236893FAA3F3B3FA83F3BF
:100FE0005B1C03F01F0303EB43034FF0000B4BEAC2
:100FF00003534CEA030347E02368C3F3120323B906
:101000002368C3F3846305E043E0236893FAA3F302
:10101000B3FA83F35B1C03F01F034FF0010C0CFACF
:1010200003FC2368C3F312031BB92368C3F384636F
:1010300004E0236893FAA3F3B3FA83F35B1C03F091
:101040001F034CEA836C2368C3F312031BB92368A4
:10105000C3F3846304E0236893FAA3F3B3FA83F33E
:101060005B1C03F01F030A3B03EB43034FF0007BC1
:101070004BEA035306E0000000007F4000F0FF034E
:10108000FFFF07004CEA03031946A268286803F033
:10109000C7FC2F492068084050B300BF2D48806826
:1010A00000F0E07600BF2C492068884203D02B492D
:1010B000206888421DD106F40000D0B92868B0F13C
:1010C000A04F3ED146F40001224803F0BDFC244865
:1010D00000682449B0FBF1F0401C00EB40008000A8
:1010E000009002E00098401E009000980028F9D17E
:1010F00027E01D49206888420CD106F0807048B96D
:101100001A49286888421CD046F08071114803F0C3
:101110009BFC16E016492068884212D106F4800034
:1011200078B91249286888420BD046F480010948F2
:1011300003F08AFC05E0E86D40F02000E8654FF020
:10114000010A00BF002085F8580000BF5046A1E505
:101150000000088000030050000021C31000C09070
:1011600018000020400D0300000052C7000100508D
:10117000000084CB70477047704700002DE9F84F9E
:101180000446002000902068056820684668C5482D
:1011900003F004FC074605F00200022811D106F016
:1011A000020002280DD1E06D00F0100018B9E06DCA
:1011B00040F40060E0652046FFF7CCFC0220216887
:1011C000086005F00400042803D106F00400042898
:1011D00007D005F0080008285FD106F008000828AD
:1011E0005BD1E06D00F0100018B9E06D40F40070C4
:1011F000E065206803F003FC002848D0AA49206875
:10120000884202D14FF0A04000E020682168884267
:1012100004D01FB1052F01D0092F03D12068D0F8C9
:101220000C800AE0A0492068884202D14FF0A0401B
:1012300000E020688346DBF80C8008F40050B0F52D
:10124000005F24D02068006800F0080008281ED144
:10125000206803F0CAFB90B92068406820F00C00B9
:1012600021684860E06D20F48070E065E06D00F476
:10127000805060B9E06D40F00100E06507E0E06D8E
:1012800040F01000E065206E40F00100206620462E
:10129000FFF770FF0C202168086005F0200020286F
:1012A00003D106F02000202807D005F04000402898
:1012B00072D106F0400040286ED1E06D00F01000C1
:1012C00018B9E06D40F40050E0652068C16C01F48D
:1012D000C07109B9012100E000218A4600BF2068E1
:1012E00003F08DFB814670492068884202D14FF09F
:1012F000A04000E020682168884204D01FB1062F7A
:1013000001D0072F03D12068D0F80C800AE066498D
:101310002068884202D14FF0A04000E02068834658
:10132000DBF80C80BAF1000F30D008F0007028B163
:10133000B9F1000F2AD008F4005038BB20680068CB
:1013400000F04000402821D108F40010F0B92068D6
:1013500003F032FB90B92068406820F060002168FB
:101360004860E06D20F48050E065E06D00F480702E
:1013700060B9E06D40F00100E06507E0E06D40F02D
:101380001000E065206E40F0010020662046FFF767
:10139000E2FB60202168086005F0800080280DD104
:1013A00006F08000802809D1E06D40F48030E065CF
:1013B000204600F0AFF980202168086005F48070B5
:1013C000B0F5807F0FD106F48070B0F5807F0AD130
:1013D000E06D40F40030E0652046FFF7BEFB4FF4BF
:1013E00080702168086005F40070B0F5007F0FD1AF
:1013F00006F40070B0F5007F0AD1E06D40F4802063
:10140000E0652046FFF7AAFB4FF4007021680860F2
:1014100005F0100010282AD106F01000102826D15F
:10142000E06B10B90120009010E047B100BF1D48EB
:10143000806800F4604048B10120009006E0206818
:10144000C06800F0010008B1012000900098012858
:101450000AD1E06D40F48060E065206E40F002004B
:1014600020662046FFF788FE10202168086005F4FA
:101470008060B0F5806F13D106F48060B0F5806FA6
:101480000ED1E06D40F48040E065206E40F0080031
:1014900020664FF48060216808602046FFF75CFBFF
:1014A000BDE8F88F00030050000100502DE9F84F0F
:1014B00004464FF000090020009014B90120BDE857
:1014C000F88F606920B194F82400012800D100BF92
:1014D000E06D30B9204600F01FF90020206684F846
:1014E000580020688168C1F3407131B1206881687B
:1014F000814A1140816000BF00BF206803F070FA8C
:10150000B0B9206881687D4A114041F08051816006
:1015100000BF7B4800687B49B0FBF1F0401C4000F5
:10152000009002E00098401E009000980028F9D139
:10153000206803F055FA48B9E06D40F01000E0650E
:10154000206E40F0010020664FF00109206803F092
:101550004CFA0646E06D00F0100000287CD1002E09
:10156000FCD1E06D20F4807040F00200E06520685E
:1015700003F02CFAB0B94FF0A04003F027FA8246EE
:10158000614803F023FA4AEA000ABAF1000F09D1D0
:1015900060685E49896821F47C1101435B4A91606F
:1015A00000BF00BF607FE16B41EA4030E168084363
:1015B000A168084394F8241040EA014594F82400F7
:1015C000012803D1208D401E45EA4045E06A28B13C
:1015D000A08D00F47870216B084305432068C06833
:1015E0004B49084028432168C8602068006920F002
:1015F0004060616B084321680861206803F0F5F9D9
:101600008046206803F0D8F90746B8F1000F50D1A2
:10161000F7BB207F002141EA803194F8380041EA8D
:1016200040052068C06844F20201884328432168CD
:10163000C860206988B12068006940F48030216862
:1016400008612068D0F8C0006FF30D0021690843DD
:101650002168C1F8C0000EE045E02068006920F470
:101660008030216808612068D0F8C0006FF30D0059
:101670002168C1F8C00094F84000012813D1606CC3
:1016800040F00101A06C0843E16C0843216D00E0CB
:101690000FE008432168096940F2FC729143084356
:1016A0002168086105E02068006920F001002168D8
:1016B00008616069012809D12068006B20F00F00E3
:1016C000216A491E08432168086305E02068006B11
:1016D00020F00F0021680863E06D20F0020040F068
:1016E0000100E06505E0E06D40F01000E0654FF0BE
:1016F00001094846E3E60000C0FFFF5FC0FFFF7F2F
:1017000018000020400D03000001005000030050AD
:101710000740F0FF7047000010B598B00446142150
:1017200013A8FEF7AFFD442102A8FEF7ABFD206829
:10173000B0F1A04F5FD14FF40040029080031190B0
:1017400002A800F09FFD08B1FFF7A8F95D48006806
:10175000401C5C4908600846006801280DD100BFA4
:101760005948C06C40F400505749C8640846C06CE2
:1017700000F40050019000BF00BF00BF5248C06C91
:1017800040F002005049C8640846C06C00F00200F6
:10179000019000BF00BF8814139003201490002014
:1017A000159013A9494800F007FB494849490860CA
:1017B00005204860002147488160C16080210161A7
:1017C00089004161890081612021C16109020162B2
:1017D00000F014FA08B1FFF761F900BF3D486065F9
:1017E000846200BF00220221122000F063FC12205C
:1017F00000F04CFC63E03849206888425FD1C001AA
:1018000002908003119002A800F03CFD08B1FFF7A0
:1018100045F92C480068401C2A49086008460068C1
:1018200001280DD100BF2848C06C40F40050264963
:10183000C8640846C06C00F40050019000BF00BFAF
:1018400000BF2148C06C40F002001F49C864084630
:10185000C06C00F00200019000BF00BF4FF40040D8
:101860001390032014900020159013A9174800F03E
:10187000A3FA174814301949086024204860002151
:1018800016488160C1608021016189004161890041
:1018900081612021C1610902016200F0AFF908B144
:1018A000FFF7FCF800BF0D486065846200BF0022AE
:1018B0000221122000F0FEFB122000F0E7FB18B01E
:1018C00010BD00000000002000100240000400488D
:1018D0001C0002408C01002000010050EC0100209F
:1018E0002DE9F04104460F4690463D4803F056F876
:1018F0000646206803F079F800286DD100BF94F8FF
:101900005800012802D10220BDE8F081012084F8AE
:10191000580000BF1EB1052E01D0092E56D1204619
:10192000FEF7F4FF0546002D4BD1E06D40F6016156
:10193000884340F48070E0652A492068884202D1DB
:101940004FF0A04000E020682168884200D01EB916
:10195000E06D20F48010E065E06D00F4805020B16F
:10196000206E20F00600206601E0002020661E4860
:10197000616DC8621D48616D08631D48616D4863F3
:101980001C202168086000BF002084F8580000BFB8
:101990002068406840F01000216848602068C068F6
:1019A00040F001002168C860226802F1400143460E
:1019B0003A46606D00F08AF90546206803F028F881
:1019C0000BE000BF002084F8580006E0012500BFAE
:1019D000002084F8580000E00225284694E7000023
:1019E0000003005000010050B90700086908000812
:1019F0004B0800080146002091F82520022A03D058
:101A00000422CA63012027E00A68126822F00E024D
:101A10000B681A608A6C126822F480728B6C1A60F0
:101A20000A68126822F001020B681A6091F84420DB
:101A300002F01F0301229A400B6C5A60D1E9133265
:101A40005A604A6D42B14A6D126822F480724B6D41
:101A50001A60D1E916325A60012281F8252000BFB0
:101A6000002281F8242000BF704770B5044600258D
:101A700094F8250002280BD00420E063012084F8AC
:101A8000250000BF002084F8240000BF012534E0B9
:101A90002068006820F00E00216808602068006857
:101AA00020F0010021680860A06C006820F48070BC
:101AB000A16C086094F8440000F01F0101208840E8
:101AC000216C4860D4E913104860606D40B1606DCE
:101AD000006820F48070616D0860D4E916104860D9
:101AE000012084F8250000BF002084F8240000BFF6
:101AF000A06B10B12046A16B8847284670BD70B519
:101B00000446206C05682068066894F8440000F0DC
:101B10001F01042088402840E0B106F00400C8B14D
:101B20002068006800F0200028B92068006820F0D4
:101B300004002168086094F8440000F01F010420AC
:101B40008840216C4860206B002856D02046216BCD
:101B5000884752E094F8440000F01F0102208840BA
:101B6000284018B306F0020000B32068006800F0B7
:101B7000200040B92068006820F00A002168086051
:101B8000012084F8250094F8440000F01F01022091
:101B90008840216C486000BF002084F8240000BF0A
:101BA000E06A50B32046E16A884726E094F8440092
:101BB00000F01F01082088402840F0B106F008001E
:101BC000D8B12068006820F00E002168086094F801
:101BD000440000F01F0101208840216C4860012072
:101BE000E06384F8250000BF002084F8240000BFD3
:101BF000606B10B12046616B884770BD70B50446BC
:101C00000CB9012070BD2F49206888420BD22E49A3
:101C10002068401A1421B0FBF1F0800060642A486B
:101C2000083820640AE027492068401A1421B0FBD4
:101C3000F1F080006064234808382064022084F8B2
:101C400025002068056847F6F0708543D4E9020155
:101C500008432169084361690843A1690843E169B0
:101C60000843216A08430543206805602046FEF7C3
:101C7000B1FEA068B0F5804F01D1002060602079EE
:101C8000A16C0860D4E913104860606860B16068B6
:101C9000042809D82046FEF7BFFE0020616D0860C9
:101CA000D4E91610486003E000206065A065E06597
:101CB0000020E063012084F82500002084F824003F
:101CC00000BF9FE708040240080002402DE9F041F0
:101CD00004460D4616461F464FF0000800BF94F814
:101CE0002400012802D10220BDE8F081012084F8FF
:101CF000240000BF94F8250001283FD1022084F879
:101D000025000020E0632068006820F001002168C1
:101D100008603B46324629462046FEF78FFE206B80
:101D200030B12068006840F00E00216808600BE0C8
:101D30002068006820F004002168086020680068BE
:101D400040F00A0021680860A06C006800F4803050
:101D500028B1A06C006840F48070A16C0860606DD0
:101D600028B1606D006840F48070616D0860206883
:101D7000006840F001002168086006E000BF002014
:101D800084F8240000BF4FF002084046ACE7000092
:101D900070B5044600F00AF906462546681C10B1E5
:101DA00004480068054400BF00F000F9801BA84209
:101DB000FAD370BD1400002078B503460022D0E0AD
:101DC000012696400D6805EA0604002C72D04D6885
:101DD000012D08D04D68022D05D04D68112D02D07F
:101DE0004D68122D13D1986856000325B540A843BD
:101DF0005600CD68B5402843986058680125954045
:101E0000A8430D79C5F30015954028435860D8685C
:101E100056000325B540A84356008D68B5402843B9
:101E2000D8604D68022D02D04D68122D13D1D6080E
:101E300003F1200555F826005507EE0E0F25B54095
:101E4000A8435607F60E0D69B5402843D60803F19E
:101E5000200545F82600186856000325B540A8431C
:101E60000D7905F003055600B540284318604D680C
:101E700005F08055B5F1805F72D100BF3C4D2D6EED
:101E800045F001053A4E356635462D6E05F00105E3
:101E9000009500BF00BF4FEAB635960855F82600FA
:101EA00095072E0F0F25B540A843B3F1904F02D1EF
:101EB00000251AE054E02F4DAB4201D1012514E07A
:101EC0002D4DAB4201D102250FE02C4DAB4201D18B
:101ED00003250AE02A4DAB4201D1042505E0294D36
:101EE000AB4201D1052500E006259607360FB54027
:101EF0002843254D960845F82600244D2868A04320
:101F00004D6805F48035B5F5803F00D120431F4D65
:101F100028602D1D2868A0434D6805F40035B5F5EF
:101F2000003F00D12043194D2D1D28602D1D28682C
:101F3000A0434D6805F48015B5F5801F00D12043FE
:101F4000124D083528602D1D2868A0434D6805F402
:101F50000015B5F5001F00D120430C4D0C3528604D
:101F6000521C0D68D540002D7FF42AAF78BD0000CB
:101F7000001002400004004800080048000C00481F
:101F8000001000480014004808000140000401400F
:101F9000024613690B400BB1012000E0002070479E
:101FA0000AB1816100E08162704700000148006869
:101FB000704700000C0000200348006803490968CE
:101FC00008440149086070470C00002014000020FC
:101FD00010B50024032000F0ABF8002000F008F852
:101FE00008B1012401E000F02FF8204610BD0000E8
:101FF00070B50446002511480068D8B10F48006844
:102000004FF47A71B1FBF0F00D490968B1FBF0F6BD
:10201000304601F01BF958B9102C07D20022214696
:10202000501E00F047F80748046004E0012502E074
:10203000012500E00125284670BD000014000020A5
:10204000180000201000002008B500BF0E48006EE8
:1020500040F001000C4908660846006E00F00100DF
:10206000009000BF00BF00BF0846806D40F0805068
:1020700088650846806D00F08050009000BF00BF6A
:1020800000F0F6F808BD00000010024001460846C6
:1020900000280DDB00BF00BF00F01F0301229A40A3
:1020A00043099B0003F1E023C3F8002100BF00BFF8
:1020B00000BF70472DE9F05F80460D46164604F0DC
:1020C00051FC074639462A46334601F00700C0F165
:1020D000070ABAF1040F02D94FF0040A01E0C0F177
:1020E000070AD14600F1040ABAF1070F02D24FF0F5
:1020F000000A01E0A0F1030AD4464FF0010A0AFAEF
:1021000009FAAAF1010A0AEA020A0AFA0CFA4FF0DD
:10211000010B0BFA0CFBABF1010B0BEA030B4AEAC8
:102120000B042146404604F025FCBDE8F09F00006A
:1021300000BF00F00702064B19684FF6FF03194075
:10214000044B0B4343EA0221014B196000BF704767
:102150000CED00E00000FA0502468ABB4148006829
:1021600000F4C060B0F5806F2BD13E48803000682D
:1021700020F480703B4BC3F880001846006820F4C0
:10218000C06040F40070186037480068322358433C
:10219000364BB0FBF3F0411C00E0491E314840696A
:1021A00000F48060B0F5806F01D10029F5D12D4891
:1021B000406900F48060B0F5806F51D10320704712
:1021C00008E028488030006820F48070254BC3F870
:1021D000800045E0B2F5007F3AD12248006800F463
:1021E000C060B0F5806F2AD11E488030006840F48E
:1021F00080701C4BC3F880001846006820F4C06053
:1022000040F4007018601848006832235843174B98
:10221000B0FBF3F0411C00E0491E1248406900F495
:102220008060B0F5806F01D10029F5D10D4840697B
:1022300000F48060B0F5806F12D10320BFE7094839
:102240008030006840F48070064BC3F8800007E0DF
:102250000448006820F4C06040F48060014B1860BE
:102260000020ACE7007000401800002040420F0042
:102270000348806840F4804001498860704700004E
:10228000007000402DE9F84304460027B846206856
:1022900000F40020B0F5002F73D1B946D348806D0B
:1022A00000F0805078B900BFD048806D40F0805079
:1022B000CE4988650846806D00F08050009000BFD0
:1022C00000BF4FF00109CA48006840F48070C84957
:1022D0000860FFF76BFE064606E0FFF767FE801B0F
:1022E000022801D9032705E0C148006800F4807086
:1022F0000028F2D000BF002F46D1BC4890300068C3
:1023000000F44075CDB1206CA84216D0B74890308B
:10231000006820F44075B548D0F8900040F4803053
:10232000B249C1F890000846D0F8900020F48030FF
:10233000C1F890000846C0F8905005F00100A0B127
:10234000FFF734FE064608E0FFF730FE801B41F23F
:102350008831884201D9032706E0A44890300068FC
:1023600000F002000028EFD000BF5FB99F48903016
:10237000006820F44070216C08439C49C1F890002B
:1023800003E00CE0B84600E0B846B9F1010F05D112
:102390009648806D20F080509449886500BF207871
:1023A00000F0010048B191488830006820F0030037
:1023B000616808438D49C1F88800207800F0020068
:1023C000022809D189488830006820F00C00A168F3
:1023D00008438649C1F88800207800F004000428EA
:1023E00009D182488830006820F03000E168084355
:1023F0007E49C1F88800207800F00800082809D13B
:102400007A488830006820F0C00021690843774985
:10241000C1F88800207800F02000202809D17348F6
:102420008830006820F44060616908436F49C1F852
:102430008800207800F04000402809D16B4888309F
:10244000006820F44050A16908436849C1F8880039
:10245000207800F08000802809D164488830006826
:1024600020F44040E16908436049C1F888002088B1
:1024700000F48070B0F5807F09D15C488830006836
:1024800020F44030216A08435849C1F88800208868
:1024900000F40070B0F5007F09D15448883000681E
:1024A00020F44020616A08435049C1F88800208820
:1024B00000F48060B0F5806F13D14C48883000681C
:1024C00020F44010A16A0843484988310860A06A96
:1024D000B0F5801F05D14548C06840F480104349DD
:1024E000C860208800F40060B0F5006F13D13F4849
:1024F0008830006820F44000E16A08433B49883195
:102500000860E06AB0F5800F05D13848C06840F433
:1025100080103649C860208800F48050B0F5805F94
:1025200013D132488830006820F04070216B084396
:102530002E4988310860206BB0F1807F05D12B488F
:10254000C06840F480102949C860208800F4005019
:10255000B0F5005F13D125488830006820F0406056
:10256000616B0843214988310860606BB0F1006FEE
:1025700005D11E48C06840F480101C49C8602088FE
:1025800000F48040B0F5804F13D1184888300068BF
:1025900020F04060A16B0843144988310860A06BAB
:1025A000B0F1006F05D11148C06840F480100F49A8
:1025B000C860208800F40040B0F5004F13D10B48EC
:1025C0008830006820F04050E16B084307498831AB
:1025D0000860E06BB0F1805F05D10448C06840F44A
:1025E00080300249C8604046BDE8F88300100240D0
:1025F000007000402DE9F04104460D464FF0000800
:1026000014B90120BDE8F0817D48006800F00F009A
:10261000A8420ED27A48006820F00F00284378497B
:1026200008600846006800F00F00A84201D00120B1
:10263000E8E7207800F00100002864D060680328F3
:1026400023D17048006800F0007008B90120D9E774
:1026500002F00CFD06466C48864237D9694880680E
:1026600000F0F00030B1207800F0020002282DD1F7
:10267000A06858BB6348806820F0F00040F08000FC
:10268000604988604FF0800820E06068022806D129
:102690005C48006800F4003040B90120B2E75948B6
:1026A000006800F4806008B90120ABE700F0DEF8B4
:1026B00006465548864209D95248806820F0F00005
:1026C00040F080004F4988604FF080084D48806896
:1026D00020F00300616808434A498860FFF766FC00
:1026E000074608E0FFF762FCC01B41F288318842D0
:1026F00001D9032086E74348806800F00C00616838
:10270000B0EB810FEED1207800F00200022820D13A
:10271000207800F00400042805D13A48806840F48D
:10272000E06038498860207800F00800082807D168
:102730003448806820F4605040F4E060314988609B
:102740003048806820F0F000A16808432D49886077
:1027500008E0B8F1800F05D12A48806820F0F00029
:10276000284988602648006800F00F00A84219D95F
:102770002348006820F00F00284321490860FFF734
:1027800015FC074608E0FFF711FCC01B41F2883139
:10279000884201D9032035E71948006800F00F008E
:1027A000A842F0D1207800F00400042807D1154891
:1027B000806820F4E060E16808431249886020786E
:1027C00000F00800082808D10E48806820F4605006
:1027D000216940EAC1000B49886000F047F80949C7
:1027E0008968C1F30311094A515C01F01F01C84017
:1027F0000749086007480068FFF7FAFB02E7000096
:10280000002002400010024000B4C40440770008D9
:1028100018000020100000200148006870470000E8
:102820001800002000B5FFF7F7FF05498968C1F3DC
:102830000221044A515C01F01F01C84000BD0000A4
:10284000001002405077000800B5FFF7E5FF05498A
:102850008968C1F3C221044A515C01F01F01C840DC
:1028600000BD0000001002405077000870B5224DF6
:10287000AD6805F00C05042D01D120483AE01E4D4D
:10288000AD6805F00C05082D01D11D4832E01A4D48
:10289000AD6805F00C050C2D2BD1174DED6805F03A
:1028A0000304154DED68C5F303156A1C022C0CD00A
:1028B000032C09D1124DB5FBF2F50F4EF668C6F3A5
:1028C000062605FB06F10AE000BF0C4DB5FBF2F54C
:1028D000094EF668C6F3062605FB06F100BF00BFE9
:1028E000054DED68C5F341656D1C6B00B1FBF3F060
:1028F00000E0002070BD0000001002400024F40041
:1029000000366E012DE9F843044614B90120BDE8F4
:10291000F883207800F00100002865D0FC4880682A
:1029200000F00C07FA48C06800F003060C2F01D134
:10293000032E01D0082F0AD1F548006800F40030BA
:10294000002851D0606800284ED10120DFE700BF89
:102950006068B0F5803F06D1ED48006840F48030F3
:10296000EB4908601AE06068B0F5A02F0BD1E84889
:10297000006840F48020E64908600846006840F49A
:10298000803008600AE0E248006820F48030E049C6
:1029900008600846006820F48020086000BF606876
:1029A00088B1FFF703FB054606E0FFF7FFFA401B7F
:1029B000642801D90320AAE7D548006800F4003054
:1029C0000028F2D010E0FFF7F1FA054606E0FFF725
:1029D000EDFA401B642801D9032098E7CC48006831
:1029E00000F400300028F2D1207800F00200022824
:1029F00060D1C748806800F00C07C548C06800F087
:102A000003060C2F01D1022E01D0042F18D1C0488B
:102A1000006800F4806018B1E06808B9012076E72A
:102A2000BB48406820F0FE40217C40EA0160B84984
:102A30004860B8480068FFF7DBFA18B3012066E782
:102A4000E06800B3B248006840F48070B0490860A4
:102A5000FFF7ACFA054606E0FFF7A8FA401B02288C
:102A600001D9032053E7AA48006800F480600028D9
:102A7000F2D0A748406820F0FE40217C40EA016087
:102A8000A349486016E0A248006820F48070A0497D
:102A90000860FFF78BFA054606E0FFF787FA401B50
:102AA000022801D9032032E79948006800F48060C9
:102AB0000028F2D1207800F00800082836D160699B
:102AC000D0B193489430006840F001009049C1F8BB
:102AD0009400FFF76BFA054606E0FFF767FA401B24
:102AE000022801D9032012E789489430006800F0D9
:102AF00002000028F1D019E085489430006820F0E9
:102B000001008349C1F89400FFF750FA054606E03A
:102B1000FFF74CFA401B022801D90320F7E67C4856
:102B20009430006800F002000028F1D1207800F015
:102B30000400042872D14FF000087548806D01210F
:102B400021EA107078B100BF7148806D40F080506C
:102B50006F4988650846806D00F08050009000BF86
:102B600000BF4FF001086C48006800F48070B0B9F5
:102B70006948006840F4807067490860FFF716FAFA
:102B8000054606E0FFF712FA401B022801D9032090
:102B9000BDE66148006800F480700028F2D000BFF4
:102BA000A068012808D15A489030006840F0010020
:102BB0005749C1F8900021E0A06805280FD154487A
:102BC0009030006840F004005149C1F89000084678
:102BD000D0F8900040F00100C1F890000EE04C48A1
:102BE0009030006820F001004949C1F89000084683
:102BF000D0F8900020F00400C1F8900000BFA06859
:102C0000A8B1FFF7D3F9054609E0FFF7CFF9401B5C
:102C100041F28831884202D9032078E625E03C4819
:102C20009030006800F002000028EED013E0FFF7BB
:102C3000BDF9054608E0FFF7B9F9401B41F28831BC
:102C4000884201D9032062E631489030006800F0E4
:102C500002000028EFD1B8F1010F05D12C48806D9A
:102C600020F080502A49886500BF207800F02000BD
:102C7000202836D1A069D0B125489830006840F0AE
:102C800001002349C1F89800FFF790F9054606E0D6
:102C9000FFF78CF9401B022801D9032037E61C48B6
:102CA0009830006800F002000028F1D019E01848C0
:102CB0009830006820F001001549C1F89800FFF72E
:102CC00075F9054606E0FFF771F9401B022801D9A6
:102CD00003201CE60E489830006800F0020000282F
:102CE000F1D1E069002860D00948806800F00C004C
:102CF0000C287FD0E069022858D10548006820F0F0
:102D0000807003490860FFF751F905460DE00000A7
:102D1000001002401000002000700040FFF746F94C
:102D2000401B022801D90320F1E54D48006800F05E
:102D300000700028F2D1D4E90810401E41EA0011C9
:102D4000A06A41EA0021208E0122C2EB500041EA34
:102D500040513420005DC2EB500041EA40612C201C
:102D6000005D41EAC0603E49C9683E4A11400843DF
:102D70003B49C8600846006840F08070086008461B
:102D8000C06840F08070C860FFF710F9054606E0A3
:102D9000FFF70CF9401B022801D90320B7E53048A2
:102DA000006800F000700028F2D056E02C4800685F
:102DB00020F080702A4908600846C06820F00300AF
:102DC000C8600846C068284908402549C860FFF720
:102DD000EDF8054607E00DE0FFF7E8F8401B022894
:102DE00001D9032093E51E48006800F00070002818
:102DF000F2D132E0E069012800D188E51848C668C0
:102E000006F00301206A814225D106F0F001606AD4
:102E1000401EB1EB001F1ED106F4FE41A06AB1EBCB
:102E2000002F18D106F078412C20005DB1EBC06F67
:102E300011D106F4C001208E0122C2EB5000B1EB8B
:102E4000405F08D106F0C0613420005DC2EB500045
:102E5000B1EB406F01D0012059E5002057E500009B
:102E6000001002400C809F01FFFFEEFE70B5064689
:102E70000B4615460F4800680F4900EA0104200C74
:102E8000D870C4F30420587004F03F009870C4F365
:102E9000423018705DB9D87802F0ACFAD870587822
:102EA00002F0A8FA5870987802F0A4FA98700020FE
:102EB00070BD0000042800403FFFFF0070B50646CB
:102EC0000B461546144800685860134808300068DF
:102ED000C0F30E0098601048083800680F4900EAF7
:102EE0000104C4F305401870C4F30620587004F0C0
:102EF0007F009870A00DD8705DB9187802F07AFA4A
:102F00001870587802F076FA5870987802F072FAD1
:102F10009870002070BD0000082800407F7F7F006F
:102F200070B504460125002C4ED094F8250028B930
:102F3000002084F82400204600F04CF8022084F899
:102F4000250000BFCA20214908605320086000BF47
:102F5000204602F067FA05466DBB1C480C38006835
:102F60001B49084019490C39086021696068084309
:102F7000A169084315490C390968084313490C39FC
:102F800008602089E16841EA00401049143908606E
:102F9000204602F06FFA05466DB9D4E907100843E0
:102FA0006169084309490C39096821F06041084307
:102FB00006490C39086000BFFF200449086000BFC3
:102FC00015B9012084F82500284670BD242800404A
:102FD000BFFF8FFB10B592B00446442101A8FDF756
:102FE00051F913492068884220D14FF40020019004
:102FF0004FF44070119001A8FFF744F908B1FDF7B4
:103000004DFD0C48006840F400400A499039C1F871
:10301000900000BF0846806D40F4806088650846D7
:10302000806D00F48060009000BF00BF12B010BD42
:1030300000280040901002402DE9F04705460C465C
:10304000174600BF95F82400012802D10220BDE8F0
:10305000F087012085F8240000BF022085F82500B4
:103060004FB9607800F01000102804D1607800F0AB
:10307000EF000A30607097B9E07802F0C5F94FEAC6
:103080000049607802F0C0F949EA0029A07802F00E
:10309000BBF949EA0009207849EA403809E0E078BC
:1030A0000004617840EA0120A1780843217840EAD1
:1030B000413800BFCA20124908605320086000BF91
:1030C000284602F0AFF906464EB90E4808EA00005D
:1030D0000B4920390860284602F0CCF9064600BFAB
:1030E000FF200749086000BF16B9012085F82500B8
:1030F00000BF002085F8240000BF3046A7E700008D
:10310000242800403FFFFF002DE9F04705460C460C
:10311000904600BF95F82400012802D10220BDE8A6
:10312000F087012085F8240000BF022085F82500E3
:1031300000BFCA20344908605320086000BF2846F9
:1031400002F070F90646002E4ED1B8F1000F1CD1E6
:103150002D480C38006800F0400000B102E000206B
:10316000E07000BF207802F04FF94FEA0049607824
:1031700002F04AF949EA0029A07802F045F949EA43
:103180000009E07849EA805713E01F480C380068CE
:1031900000F0400000B102E00020E07000BF2078A5
:1031A0000004617840EA0120A1780843E17840EA10
:1031B00081571648384014492439086012480C38A1
:1031C000006820F4802010490C390860D4E903011C
:1031D00008430D490C39096808430B490C3908604C
:1031E000284602F047F9064600BFFF20064908605E
:1031F00000BF16B9012085F8250000BF002085F822
:10320000240000BF30468AE7242800407F7F7F00EB
:1032100070B505460C48006820F020000A49086097
:10322000FEF7C4FE044607E0FEF7C0FE001BB0F543
:103230007A7F01D9032070BD0348006800F02000A8
:103240000028F1D00020F6E70C28004070B50446B5
:103250002546681EB0F1807F01D301200FE0681E73
:103260004FF0E02148610F214FF0FF3003F082FB67
:1032700000204FF0E021886107200861002070BD28
:1032800010B50346002200BF93F83C00012801D18D
:10329000022010BD012083F83C0000BF22F0FF0097
:1032A000CC6840EA040222F440708C6840EA0402D0
:1032B00022F480604C6840EA040222F400600C684A
:1032C00040EA040222F480500C6940EA040222F42D
:1032D00000504C6940EA040222F480400C6B40EA42
:1032E000040222F470200C8B40EA04421C4C186843
:1032F000A04203D01B4C1868A04204D122F0805099
:10330000CC6940EA0402164C1868A04203D0154C60
:103310001868A0421BD122F470000C8D40EA0452C0
:1033200022F080700C6A40EA040222F000704C6ABD
:1033300040EA04020A4C1868A04203D0094C1868FD
:10334000A04204D122F00050CC6A40EA040218687E
:10335000426400BF002083F83C0000BF00BF98E734
:10336000002C01400034014030B502460B4600BF3E
:1033700092F83C00012801D1022030BD012082F8E2
:103380003C0000BF022082F83D00106841681068D0
:1033900084681D4D1068A84203D01C4D1068A842D7
:1033A00003D121F47001586801431948014018689D
:1033B000014310684160144D1068A84213D0106892
:1033C000B0F1804F0FD0134D1068A8420BD0124DB2
:1033D0001068A84207D00D4D1068A84203D00F4DC9
:1033E0001068A84205D124F080049868044310684E
:1033F0008460012082F83D0000BF002082F83C007C
:1034000000BF00BFB9E70000002C014000340140BC
:103410008FFFFFFD00040040000800400040014015
:1034200010B504460CB9012010BD94F83D0028B930
:10343000002084F83C00204600F02AF8022084F89E
:103440003D00211D206802F08DF8012084F848001D
:1034500000BF84F83E0001213F2001554020015566
:1034600041200155422001554320015500BF00BFB6
:10347000012084F84400452001554620015547208D
:10348000015500BF012084F83D000020CCE700007A
:1034900010B586B00446142101A8FCF7F3FE3849A4
:1034A0002068884245D100BF3648806D40F0020058
:1034B000344988650846806D00F00200009000BF26
:1034C00000BF00BF0846C06C40F00400C864084656
:1034D000C06C00F00400009000BF00BF40200190CD
:1034E000022002900020039004900220059001A980
:1034F0002548FEF761FC2548254908603D204860C5
:10350000002123488160C1608021016189004161FF
:10351000890081612021C16100210162FEF76EFBFB
:1035200008B1FDF7BBFA00BF194961620846846221
:1035300023E01849206888420DD100BF1148006E71
:1035400040F400300F4908660846006E00F4003071
:10355000009000BF11E01049206888420DD100BFE3
:103560000848006E40F48020064908660846006E50
:1035700000F48020009000BF00BF06B010BD000026
:1035800000040040001002400008004844000240CF
:103590005803002000440140004801402DE9F0415B
:1035A00004460D4600BF94F83C00012802D10220D9
:1035B000BDE8F081012084F83C0000BF022084F8BF
:1035C0003D00206886683F48064026F47F46206814
:1035D00086602868702824D00CDC00F00F010029D8
:1035E00064D10011072861D2DFE800F0535455562A
:1035F00049353F00344A811A90424FD009DCB0F57A
:10360000805F0DD0B0F5005F18D0B0F1101F4DD124
:1036100043E0102943D0202942D0502946D140E030
:1036200045E0D5E902136A68206802F096F8206840
:10363000866846F077062068866038E0D5E9021390
:103640006A68206802F089F82068806840F4804049
:10365000216888602BE0EA686968206802F0E6FA71
:103660005021206802F084F821E0EA686968206847
:1036700002F02EFB6021206802F07AF817E0EA6879
:103680006968206802F0D2FA4021206802F070F8E0
:103690000DE000BF00BF00BF00BF00BF00BF00BF04
:1036A00000BF2968206802F063F800E000BF00BF97
:1036B000012084F83D0000BF002084F83C0000BFDA
:1036C00000BF75E788FFCEFF2000100070477047ED
:1036D00070472DE9F04104460D46164600BF94F8A8
:1036E0003C00012802D10220BDE8F081012084F8CD
:1036F0003C0000BF96B9EB68D5E90012206802F0E3
:10370000A9FA2068806920F00C002168886120688F
:103710008069A9680843216888613DE0042E13D1BF
:10372000EB68D5E90012206802F0E6FA20688069AB
:1037300020F440602168886120688069A96840EAB7
:1037400001202168886127E0082E12D1EB68D5E9B5
:103750000012206802F0EDFA2068C06920F00C0029
:103760002168C8612068C069A96808432168C861E8
:1037700012E0EB68D5E90012206802F0F6FA206842
:10378000C06920F440602168C8612068C069A968E8
:1037900040EA01202168C86100BF002084F83C0095
:1037A00000BF00BFA0E710B504460CB9012010BD52
:1037B00094F83D0028B9002084F83C00204600F031
:1037C00029F8022084F83D00211D206801F0CAFE7E
:1037D000012084F8480000BF84F83E0001213F200A
:1037E00001554020015541200155422001554320FB
:1037F000015500BF00BF012084F844004520015559
:10380000462001554720015500BF012084F83D00A6
:103810000020CCE7704700002DE9F04704460D4634
:103820001746984615B994F83E0015E0042D02D1CC
:103830003F20005D10E0082D02D14020005D0BE02C
:103840000C2D02D14120005D06E0102D02D1422056
:10385000005D01E04320005D814615B994F8440005
:103860000BE0042D02D14520005D06E0082D02D1B9
:103870004620005D01E04720005D8246B9F1020F5D
:1038800002D0BAF1020F02D10220BDE8F087B9F1EF
:10389000010F3DD1BAF1010F3AD127B9B8F1000FAC
:1038A00001D00120F1E71DB9022084F83E001AE0A2
:1038B000042D03D102213F20015514E0082D03D12E
:1038C0000221402001550EE00C2D03D102214120A0
:1038D000015508E0102D03D102214220015502E0DC
:1038E0000221432001551DB9022084F8440011E053
:1038F000042D03D10221452001550BE0082D03D1F1
:1039000002214620015505E002214720015501E032
:103910000120BAE735B1042D1FD0082D38D00C2D69
:103920006CD150E05149606AC1625149606A0163DB
:103930005049606A4163226802F1340143463A46C5
:10394000606AFEF7C3F908B101209EE72068C068ED
:1039500040F400702168C86051E04449A06AC16227
:103960004349A06A01634349A06A4163226802F1A6
:10397000380143463A46A06AFEF7A8F908B101208B
:1039800083E72068C06840F480602168C86036E042
:103990003649E06AC1623649E06A01633549E06A46
:1039A0004163226802F13C0143463A46E06AFEF771
:1039B0008DF908B1012068E72068C06840F4006014
:1039C0002168C8601BE02949206BC1622849206B2F
:1039D00001632849206B4163226802F1400143469C
:1039E0003A46206BFEF772F908B101204DE72068D6
:1039F000C06840F480502168C86000E000BF00BF8C
:103A000001222946206801F00BFE1B4920688842EC
:103A100013D02068B0F1804F0FD018492068884239
:103A20000BD017492068884207D016492068884281
:103A300003D015492068884210D120688068134956
:103A400000EA0106062E0FD0B6F5803F0CD02068A4
:103A5000006840F001002168086005E02068006807
:103A600040F001002168086000200EE7435600087E
:103A7000BD560008FD560008002C0140000400401F
:103A800000080040003401400040014007000100F0
:103A900010B586B00446142101A8FCF7F3FB2149B8
:103AA000206888421CD100BF1F48C06C40F0010054
:103AB0001D49C8640846C06C00F00100009000BFBA
:103AC00000BF40200190022002900020039004904B
:103AD0000120059001A94FF09040FEF76DF91FE01D
:103AE0001249206888421BD100BF0F48C06C40F0CB
:103AF00001000D49C8640846C06C00F00100009048
:103B000000BF00BF8020019002200290002003909F
:103B100004900120059001A94FF09040FEF74CF968
:103B200006B010BD004401400010024000480140B2
:103B300070B504460D46164600BF94F83C000128B7
:103B400001D1022070BD012084F83C0000BF0C2E82
:103B500051D005DC4EB1042E1ED0082E7AD133E0B0
:103B6000102E60D0142EF9D175E02946206801F09E
:103B70000BFE2068806940F0080021688861206899
:103B8000806920F0040021688861206880692969C3
:103B900008432168886177E02946206801F04AFEE1
:103BA0002068806940F4006021688861206880692D
:103BB00020F480602168886120688069296940EA72
:103BC0000120216888615FE02946206801F08CFEB1
:103BD0002068C06940F008002168C8612068C06999
:103BE00020F004002168C8612068C0692969084381
:103BF0002168C86148E02946206801F0CFFE2068AE
:103C0000C06940F400602168C8612068C06920F480
:103C100080602168C8612068C069296940EA012084
:103C20002168C86130E02946206801F011FF206852
:103C3000006D40F00800216808652068006D20F0E4
:103C40000400216808652068006D2969084321681F
:103C5000086519E017E02946206801F031FF206867
:103C6000006D40F40060216808652068006D20F454
:103C70008060216808652068006D296940EA01209C
:103C80002168086500E000BF00BF00BF002084F885
:103C90003C0000BF00BF55E710B504460CB9012039
:103CA00010BD94F83D0028B9002084F83C0020465F
:103CB00000F029F8022084F83D00211D206801F061
:103CC00051FC012084F8480000BF84F83E00012127
:103CD0003F2001554020015541200155422001550A
:103CE0004320015500BF00BF012084F84400452057
:103CF0000155462001554720015500BF012084F899
:103D00003D000020CCE7704770B504460D4615B95C
:103D100094F83E0015E0042D02D13F20005D10E034
:103D2000082D02D14020005D0BE00C2D02D1412076
:103D3000005D06E0102D02D14220005D01E043202D
:103D4000005D012801D0012070BD1DB9022084F85A
:103D50003E001AE0042D03D102213F20015514E05A
:103D6000082D03D10221402001550EE00C2D03D176
:103D700002214120015508E0102D03D102214220EB
:103D8000015502E002214320015501222946206805
:103D900001F046FC2749206888420FD02649206858
:103DA00088420BD025492068884207D024492068E2
:103DB000884203D023492068884201D1012000E0D5
:103DC000002028B12068406C40F40040216848641D
:103DD00018492068884213D02068B0F1804F0FD076
:103DE0001949206888420BD018492068884207D0BA
:103DF00011492068884203D010492068884210D1B8
:103E000020688068124900EA0106062E0FD0B6F538
:103E1000803F0CD02068006840F0010021680860F5
:103E200005E02068006840F001002168086000207B
:103E30008AE70000002C01400034014000400140AE
:103E400000440140004801400004004000080040D8
:103E50000700010070B504460D4600BF94F83C0011
:103E6000012801D1022070BD012084F83C0000BF70
:103E7000022084F83D002946204601F059FE48B151
:103E8000012084F83D0000BF002084F83C0000BF02
:103E90000120E8E72068C06820F040002168C86081
:103EA0002068C06820F480402168C860012084F840
:103EB0003D0000BF002084F83C0000BF00BFD2E7F7
:103EC000014600BF91F88000012801D1022070470F
:103ED000012081F8800000BF2420C1F88400086818
:103EE00002680868006820F001000B68186022F082
:103EF000005200204866086802602020C1F8840053
:103F000000BF002081F8800000BF00BFDFE77047DE
:103F1000704770B504460D4600BF94F88000012834
:103F200001D1022070BD012084F8800000BF242050
:103F3000C4F88400206806682068006820F001004A
:103F4000216808602068806820F06060284321684C
:103F50008860204601F028FF206806602020C4F811
:103F6000840000BF002084F8800000BF00BFD9E7B4
:103F700070B504460D4600BF94F88000012801D1B9
:103F8000022070BD012084F8800000BF2420C4F806
:103F90008400206806682068006820F0010021681D
:103FA00008602068806820F06040284321688860AD
:103FB000204601F0F9FE206806602020C4F8840045
:103FC00000BF002084F8800000BF00BFD9E7704721
:103FD000704770472DE9F04704462068C56920689E
:103FE00006682068876840F60F0005EA0009B9F105
:103FF000000F0FD105F0200060B106F0200010B9CD
:1040000007F0805030B1206F10B12046216F8847F3
:10401000BDE8F087B9F1000F7ED0AD48384018B93F
:10402000AC4830400028F7D005F0010058B106F444
:10403000807040B1012021680862D4F88C0040F003
:104040000100C4F88C0005F0020058B107F001002F
:1040500040B1022021680862D4F88C0040F00400CE
:10406000C4F88C0005F0040058B107F0010040B11D
:10407000042021680862D4F88C0040F00200C4F8E3
:104080008C0005F0080070B106F0200010B99048CF
:10409000384040B1082021680862D4F88C0040F014
:1040A0000800C4F88C0005F4006060B106F0806080
:1040B00048B14FF4006021680862D4F88C0040F0E9
:1040C0002000C4F88C00D4F88C00002844D005F0FF
:1040D000200050B106F0200010B907F0805020B148
:1040E000206F10B12046216F8847D4F88CA020683B
:1040F000806800F04000402802D00AF0280028B371
:10410000204601F041FF2068806800F04000402810
:1041100018D12068806800E01FE020F0400021688E
:104120008860E06F50B16C48E16F8863E06FFDF725
:104130009CFC88B1E06F816B88470DE02046FFF75B
:1041400048FF09E02046FFF744FF05E02046FFF75F
:1041500040FF0020C4F88C005AE7E06E012879D1B6
:1041600005F01000002875D006F01000002871D06E
:104170001020216808622068806800F04000402814
:104180003DD1E06F006840681FFA80F8B8F1000F79
:1041900034D0B4F85C00404530DDA4F85E80E06FB8
:1041A0000068006800F02000F8B92068006820F47A
:1041B0008070216808602068806820F00100216814
:1041C00088602068806820F0400021688860202096
:1041D000C4F888000020E0662068006820F0100025
:1041E00021680860E06FFDF705FCB4F85C00B4F8E6
:1041F0005E20801A81B22046FFF789FE08E734F876
:104200005C0F6188401A1FFA80F860885C3CF8B146
:10421000B8F1000F1CD02068006820F4907021686D
:104220000860206880682A49C9430840216888607E
:104230002020C4F888000020E0662067206800681D
:1042400020F010002168086041462046FFF75FFE1D
:10425000DEE6FFE705F4801050B107F4800038B1C6
:104260004FF48010216808622046FFF7B1FECFE6C8
:1042700005F0800058B106F0800010B907F4000086
:1042800028B1606F10B12046616F8847C0E605F025
:10429000400030B106F0400018B1204601F092FE17
:1042A000B6E605F4000030B106F0804018B12046B3
:1042B000FFF78DFEACE605F0807030B106F00040EF
:1042C00018B12046FFF724FEA2E600BFA0E60000DA
:1042D00001000010200100046F5F000810B50446C3
:1042E0000CB9012010BDA06900B100E000BFD4F8F6
:1042F000840028B9002084F88000204600F02AF8C5
:104300002420C4F884002068006820F0010021689F
:104310000860204602F05CF8012800D1E2E7A06ABC
:1043200010B1204601F06CFD2068406820F49040F8
:10433000216848602068806820F02A002168886031
:104340002068006840F0010021680860204601F004
:10435000D3FDC7E710B598B00446142113A8FBF7A6
:1043600091FF442102A8FBF78DFF2F492068884266
:1043700057D1012002900020039002A8FDF782FF90
:1043800008B1FCF78BFB00BF2848006E40F480406A
:10439000264908660846006E00F48040019000BF80
:1043A00000BF00BF0846C06C40F00100C86408466A
:1043B000C06C00F00100019000BF00BF4FF4C0606E
:1043C000139002201490002015901690072017904B
:1043D00013A94FF09040FDF7EFFC15481549086010
:1043E00018204860002113488160C160802101616C
:1043F000002141618161C1614FF400510162FDF70B
:10440000FDFB08B1FCF74AFB00BF0A48E067846285
:1044100000BF002211462520FDF74CFE2520FDF7A8
:1044200035FE18B010BD00000038014000100240F9
:1044300008000240C804002070B504460D46164628
:10444000D4F88800202825D105B10EB9012070BD0F
:1044500000BF94F88000012801D10220F7E7012075
:1044600084F8800000BF0020E0660B492068884285
:104470000AD02068406800F4000028B12068006875
:1044800040F080602168086032462946204602F0EC
:1044900065F9DCE70220DAE70080004010B5044649
:1044A0000A492068884210D1FDF780FD084908605C
:1044B00008480088401C0749088007480A461288B7
:1044C000811801220548FFF7B7FF10BD00380140F1
:1044D0000800002004000020B80300203804002059
:1044E000704700BFFEE7000000B585B014216846A4
:1044F000FBF7C8FE4FF6FF700090002001900320EC
:1045000003900020029069460248FDF755FC05B073
:1045100000BD00000008004800B585B014216846C1
:10452000FBF7B0FE4FF6FF700090012001900320D2
:1045300003900020029069460248FDF73DFC05B05B
:1045400000BD00000008004830B5054600240021E9
:10455000084600F047F900F095F900BF03E028464F
:1045600000F054F9641CB4F5963FF8D330BD000058
:1045700000B587B0142102A8FBF784FE00BF2A48CB
:10458000C06C40F004002849C8640846C06C00F0C4
:104590000400019000BF00BF00BF0846C06C40F09F
:1045A0000100C8640846C06C00F00100019000BF23
:1045B00000BF00BF0846C06C40F00200C864084657
:1045C000C06C00F00200019000BF00BF4FF44870C3
:1045D00002900120039000200590049002A9134846
:1045E000FDF7EAFB4FF48070029001200390002059
:1045F0000590049002A94FF09040FDF7DDFBFFF716
:104600008BFF4FF09040806940F480704FF09041F4
:10461000886106481830006840F408700349183172
:10462000086007B000BD0000001002400004004810
:1046300070B505460E461446A4F12000C4B204EB42
:104640004400044901EB00123146284600F01AF8F4
:1046500070BD000058770008F0B507460C460025ED
:1046600040F23F1609E0227831463846FFF7E0FF76
:10467000A6F1100086B2641C6D1C207808B1142DC0
:10468000F1D3F0BD2DE9F0430646894617460024D4
:104690000025A046B0464946404600F0A3F800BFBA
:1046A0001EE000F0EFF800250FE037F814000121BC
:1046B000A940084020B90C48008800F0A7F803E0A2
:1046C0000A48008800F0A2F86D1C102DEDD308F107
:1046D000010000F0FF084946404600F083F8641CE2
:1046E000182CDED3BDE8F0839E0000209C00002043
:1046F00010B5FFF73DFF002000F016F809490880CB
:104700000846008848F23021884202D100F0E2FCDD
:1047100001E000F06FFD002000F006F8014908807C
:1047200010BD0000A000002070B5044627480068B6
:1047300040F40070254908600846006840F4807025
:10474000086022481038006840F020001F491039E6
:1047500008601F4804601D48006840F020001B49A5
:10476000086000BF00BF00BF18481038006840F064
:1047700020001649103908600846006840F480702F
:104780000860FFF7B1FE4FF09040806A40F48070FF
:104790004FF09041886200BF00BF00BF0C48001F6F
:1047A000006885B24FF09040806940F480704FF00F
:1047B00090418861FFF7B0FE04481038006840F46B
:1047C0000070024910390860284670BD280400486E
:1047D0001408004801B5BDF800000149088008BD73
:1047E0009E00002030B504460D462146202000F0F2
:1047F00085F82946212000F081F830BD01B5BDF8CB
:1048000000000149088008BD9C0000201B49096880
:1048100041F40071194A116018491039096841F4CE
:104820008071164A103A11601146096841F0200162
:104830001160134908601149096841F020010F4ACD
:10484000116000BF00BF00BF0C491039096841F07A
:1048500020010A4A103A11601146096841F480713A
:10486000116000BF00BF00BF04491039096841F45E
:104870000071024A103A1160704700002804004895
:10488000140800481B48006840F40070194908608B
:104890000846006840F480700860164810380068C8
:1048A00040F02000134910390860222012490860A6
:1048B0001048006840F020000E49086000BF00BFAB
:1048C00000BF0C481038006840F02000094910393A
:1048D00008600846006840F48070086000BF00BFB0
:1048E00000BF04481038006840F4007001491039D6
:1048F000086070472804004814080048214A1268DC
:1049000042F400721F4B1A601A46126842F4807219
:104910001A601C4A103A126842F02002194B103BF0
:104920001A60194A1060174A126842F02002154BAB
:104930001A6000BF00BF00BF124A103A126842F06E
:104940002002104B103B1A601A46126842F4807223
:104950001A600D4A11600B4A126842F02002094B9E
:104960001A6000BF00BF00BF064A103A126842F04A
:104970002002044B103B1A601A46126842F48072FF
:104980001A60704728040048140800488168024AE9
:104990001140491C81607047C0FFFF7F0146886855
:1049A00000F01F007047024602F1600000EB810337
:1049B000186800F0F840704701468868C0F3C000EE
:1049C000704701468868C0F3400070470146886818
:1049D00000F0010070470146886800F00100704750
:1049E00001468868C0F30070704701468868C0F3CC
:1049F0008000704701468868C0F380007047014618
:104A0000C86800F4406008B9012070470020FCE746
:104A10008168024A1140091D81607047C0FFFF7F15
:104A200070B500F11404C1F3406504EB85031C6804
:104A3000C1F304560725B540AC43C1F3045502FA4F
:104A400005F52C431C6070BD826822F0E0720A43B9
:104A50008260704710B500F1600404EB81031C68AC
:104A600024F0004414431C6010BD426922F000424F
:104A70000A4342617047000000B58BB000200890E7
:104A800009900A9020216846FBF7FCFB4FF0A040FC
:104A9000204908604FF44030486000211D48816083
:104AA000C16001614161042181610021017701211F
:104AB00041770162002180F82410C1620163012165
:104AC00080F838100021C16380F84010FCF7EEFC3C
:104AD00008B1FBF7E3FF0020089008A90D48FCF798
:104AE0003FF808B1FBF7DAFF0B4800900620019071
:104AF000002002907F200390042004900020059065
:104B000069460448FCF7B2F808B1FBF7C7FF0BB0E1
:104B100000BD0000B40000200008302E00B589B0B0
:104B2000202101A8FBF7AEFB1C481D4908604FF48B
:104B30004030486000211A488160C16001614161D4
:104B40000421816100210177012141770162002167
:104B500080F82410C1620163012180F8381000211F
:104B6000C16380F84010FCF7A1FC08B1FBF796FF89
:104B70000C48019006200290002003907F200490B2
:104B8000042005900020069001A90548FCF76EF866
:104B900008B1FBF783FF09B000BD00000001005021
:104BA000200100200080F03E08B500BF1D48806C49
:104BB00040F004001B4988640846806C00F0040043
:104BC000009000BF00BF00BF0846806C40F00100AD
:104BD00088640846806C00F00100009000BF00BFB0
:104BE000002211460B20FDF765FA0B20FDF74EFA67
:104BF000002211460C20FDF75DFA0C20FDF746FA65
:104C0000002211460D20FDF755FA0D20FDF73EFA62
:104C1000002211460E20FDF74DFA0E20FDF736FA60
:104C200008BD00000010024000B587B0142102A8A2
:104C3000FBF728FB00BF3D48C06C40F004003B4937
:104C4000C8640846C06C00F00400019000BF00BFBB
:104C500000BF0846C06C40F02000C8640846C06C25
:104C600000F02000019000BF00BF00BF0846C06CEC
:104C700040F00100C8640846C06C00F001000190DB
:104C800000BF00BF00BF0846C06C40F00200C8640F
:104C90000846C06C00F00200019000BF00BF00BFDA
:104CA0000846C06C40F00800C8640846C06C00F0BC
:104CB0000800019000BF00BF01224FF47F411C4853
:104CC000FDF76EF9002204211A48FDF769F94FF447
:104CD0007F4002900120039000200490059002A9DB
:104CE0001348FDF769F8012002900020039001208D
:104CF000049002A94FF09040FDF75EF80720029063
:104D0000002003900120049002A90B48FDF754F8FD
:104D1000042002900120039000200490059002A935
:104D20000448FDF749F807B000BD0000001002403C
:104D300000080048000C00480004004800B587B097
:104D4000142102A8FBF79EFA002001902148224975
:104D50000860002048607D211F48816041F2707129
:104D6000C16000210161416181614FF08041C161F9
:104D700000210162FEF7D4F808B1FBF78FFE17207F
:104D80008DF808003B208DF8090032208DF80A00CC
:104D90000020039005900690002202A90E48FEF71D
:104DA000B3F908B1FBF77AFE05208DF80400022064
:104DB0008DF8050015208DF8060019208DF80700E4
:104DC000002201A90448FEF737F908B1FBF766FE97
:104DD00007B000BD002800404C02002000B595B08F
:104DE0001C210EA8FBF74EFA342101A8FBF74AFA62
:104DF0002248234908604F204860002120488160F4
:104E000040F2E731C1600021016141618161FEF73B
:104E100007FB08B1FBF742FE1948FEF73DFF08B15A
:104E2000FBF73CFE60200E904FF4FA700F900020CC
:104E30001090119012901390149000220EA9104817
:104E4000FEF776FE08B1FBF729FE002001900290E4
:104E50000390049005904FF40050069000200790B6
:104E60000D9001A90648FEF70BFA08B1FBF716FEF4
:104E70000348FEF70DFE15B000BD000000440140E0
:104E8000C002002000B595B01C210EA8FBF7FAF96E
:104E9000342101A8FBF7F6F92248234908604F2086
:104EA000486000212048816040F2E731C160002164
:104EB000016141618161FEF7B3FA08B1FBF7EEFDD4
:104EC0001948FEF7E9FE08B1FBF7E8FD60200E90F7
:104ED0004FF4FA700F9000201090119012901390E0
:104EE000149000220EA91048FEF722FE08B1FBF72D
:104EF000D5FD0020019002900390049005904FF49E
:104F000000500690002007900D9001A90648FEF77A
:104F1000B7F908B1FBF7C2FD0348FEF7B9FD15B0BC
:104F200000BD0000004801400C03002000B591B016
:104F300000200D900E900F901090142108A8FBF700
:104F4000A1F900200590069007900190029003902F
:104F500004902648264908604F20486000212448D4
:104F600081604FF6FF71C160002101618161FEF730
:104F700057FA08B1FBF792FD4FF480500D900DA940
:104F80001B48FEF70BFB08B1FBF788FD1848FEF73E
:104F90000AFC08B1FBF782FD04200890502009901C
:104FA00000200A900C9008A91148FEF753FF08B1A1
:104FB000FBF774FD00200590079005A90C48FEF74B
:104FC000D3F908B1FBF76AFD00200190012002909F
:104FD000002003900490002201A90548FEF779FB08
:104FE00008B1FBF75BFD11B000BD000000040040FC
:104FF0007402002010B51848184908604FF4165084
:105000004860002115488160C16001610C21416147
:1050100000218161C1610162416200200F49886203
:105020000846FFF75BF908B1FBF738FD00210B4894
:10503000FEF79EFF08B1FBF731FD00210748FEF7A0
:1050400068FF08B1FBF72AFD0448FEF739FF08B1F5
:10505000FBF724FD10BD000000380140380400209B
:1050600000BFFEE700BFFEE77047000070B5164DB9
:10507000ED6805F00304144DED68C5F303156B1CD2
:10508000022C0CD0032C09D1104DB5FBF3F50E4EBC
:10509000F668C6F3062605FB06F10AE000BF0C4DD4
:1050A000B5FBF3F5084EF668C6F3062605FB06F1D8
:1050B00000BF00BF044DED68C5F341656D1C6A007B
:1050C000B1FBF2F070BD00000010024000366E012E
:1050D0000024F40000B501210020FFF70FFC4FF47D
:1050E0007A70FBF7CCFC00210120FFF707FC41F2AE
:1050F00090711020FFF702FC4FF41C516020FFF765
:10510000FDFB01216120FFF7F9FB02214620FFF79B
:10511000F5FB48F210011320FFF7F0FB48F2FE0107
:105120001220FFF7EBFB4FF4A0610220FFF7E6FB34
:1051300041F230010320FFF7E1FB40F20331302060
:10514000FFF7DCFB40F203313120FFF7D7FB40F2E1
:1051500003313220FFF7D2FB4FF440713320FFF7C9
:10516000CDFB03213420FFF7C9FB40F2033135208A
:10517000FFF7C4FB14213620FFF7C0FB40F20331D8
:105180003720FFF7BBFB40F203313820FFF7B6FBB7
:1051900040F203313920FFF7B1FB4FF440713A2060
:1051A000FFF7ACFB03213B20FFF7A8FB40F20331E4
:1051B0003C20FFF7A3FB4FF4A0513D20FFF79EFBDF
:1051C0004FF400719220FFF799FB40F203319320D6
:1051D000FFF794FB40F60D019020FFF78FFB41F2A3
:1051E00018010320FFF78AFB40F273110720FFF735
:1051F00085FB00BD10B543F20801E320FFF77EFBFD
:105200001221E720FFF77AFB41F23121EF20FFF76F
:1052100075FB00210120FFF771FB4FF4E0610220D4
:10522000FFF76CFB41F230010320FFF767FB002121
:105230000420FFF763FB40F207210820FFF75EFB25
:1052400000210920FFF75AFB00210A20FFF756FB37
:1052500000210C20FFF752FB00210D20FFF74EFB31
:1052600000210F20FFF74AFB00211020FFF746FB2B
:1052700007211120FFF742FB00211220FFF73EFB20
:1052800000211320FFF73AFBC820FCF781FD41F213
:1052900090611020FFF732FB40F227211120FFF729
:1052A0002DFB3220FCF774FD1D211220FFF726FB99
:1052B0003220FCF76DFD4FF400611320FFF71EFB59
:1052C00014212920FFF71AFB0B212B20FFF716FBD7
:1052D0003220FCF75DFD00212020FFF70FFB0021AD
:1052E0002120FFF70BFB07213020FFF707FB40F2DF
:1052F00007713120FFF702FB06213220FFF7FEFA8B
:1053000040F204713520FFF7F9FA41F604713620B6
:10531000FFF7F4FA04213720FFF7F0FA00213820D4
:10532000FFF7ECFA40F206713920FFF7E7FA40F296
:1053300001713C20FFF7E2FA0F213D20FFF7DEFA72
:1053400000215020FFF7DAFAEF215120FFF7D6FABB
:1053500000215220FFF7D2FA40F23F115320FFF70D
:10536000CDFA4FF41C516020FFF7C8FA01216120EB
:10537000FFF7C4FA00216A20FFF7C0FA002180205D
:10538000FFF7BCFA00218120FFF7B8FA0021822044
:10539000FFF7B4FA00218320FFF7B0FA0021842040
:1053A000FFF7ACFA00218520FFF7A8FA1021902022
:1053B000FFF7A4FA00219220FFF7A0FA032193201F
:1053C000FFF79CFA4FF488719520FFF797FA0021B8
:1053D0009720FFF793FA00219820FFF78FFA41F208
:1053E00018010320FFF78AFA40F273110720FFF734
:1053F00085FA10BD0146080900EB8000420001F06B
:105400000F001044C0B2704702460023114603E06B
:105410005B1CA1F10A00C1B20A29F9D2180741EABE
:105420001060704770B5054600261148006800F00E
:105430004000D0B90E48006840F080000C49086078
:10544000FCF7B4FD044609E0FCF7B0FD001BB0F525
:105450007A7F03D90326032085F8250004480068D5
:1054600000F0400008B9032EEED1304670BD0000B8
:105470000C28004070B5044600251748006820F04D
:1054800080001549086014480C30006800F02000C6
:1054900040B92046FDF7BCFEE0B1032084F82500AA
:1054A000032517E00C480C30006820F020000A4962
:1054B0000C3108602046FDF7ABFE18B1032084F8DC
:1054C0002500032504480C30006840F02000024904
:1054D0000C310860284670BD0C280040704710B59C
:1054E000FCF76AFD10BD00B593B0382105A8FAF7A6
:1054F000C9FE14216846FAF7C5FE4FF40070FCF7A8
:105500002BFE012005900004069002200C90032140
:105510000D910E9114210F91022110911191129170
:1055200005A8FDF7EFF908B1FBF7B8FA0F200090D6
:10553000032001900020029003900490022168460D
:10554000FDF758F808B1FBF7A9FA13B000BD000049
:105550000348006840F4700001490860704700008B
:1055600088ED00E010B50268264B98420BD0B0F1F0
:10557000804F08D0244B984205D0244B984202D04B
:10558000234B984203D122F070024B681A431D4B03
:10559000984214D0B0F1804F11D01B4B98420ED0DE
:1055A0001A4B98420BD01A4B984208D0194B98428C
:1055B00005D0194B984202D0184B984203D122F4DF
:1055C0004072CB681A4322F080034C6943EA04021C
:1055D00002608B68C3620B6883620A4B98420BD0EF
:1055E0000B4B984208D00B4B984205D00A4B98427F
:1055F00002D00A4B984201D10B6903630123436136
:1056000010BD0000002C01400004004000080040D4
:105610000034014000400140004401400048014086
:1056200030B501F01F05012404FA05F3046A9C4318
:105630000462046A01F01F0502FA05F52C430462B6
:1056400030BD70B50546AC6A606AA8420AD1012037
:105650002077E86900282BD1012084F83E0084F8E7
:10566000440025E0A06AA84209D102202077E86919
:10567000F0B901213F2001554520015518E0E06AAD
:10568000A84209D104202077E86988B90121402087
:105690000155462001550BE0206BA84208D1082097
:1056A0002077E86920B901214120015547200155A3
:1056B0002046FEF70CF80020207770BD70B5054637
:1056C000AC6A606AA84202D10120207710E0A06A8B
:1056D000A84202D1022020770AE0E06AA84202D163
:1056E0000420207704E0206BA84201D10820207715
:1056F0002046FDF7EDFF0020207770BD70B5054610
:10570000AC6A606AA84204D10120207784F83E0088
:105710001DE0A06AA84205D10220207701213F2088
:10572000015514E0E06AA84205D104202077012148
:10573000402001550BE0206BA84205D108202077BE
:1057400001214120015502E0012084F83D0020465E
:10575000FDF7BCFF0020207770BD30B50C46816896
:1057600021F47F4142EA032525432943816030BD6E
:105770000A468168034B194042F0070319438160D0
:10578000704700008FFFCFFF30B5056A25F0010597
:105790000562026A43688469204D2C4024F00304AA
:1057A0000D682C4322F002028D682A431C4DA8424A
:1057B00000D10FE01B4DA84200D10BE01A4DA842CA
:1057C00000D107E0194DA84200D103E0184DA842CE
:1057D00006D100BF22F00802CD682A4322F004025D
:1057E0000F4DA8420BD00F4DA84208D00E4DA84235
:1057F00005D00E4DA84202D00D4DA84207D123F48A
:10580000807323F400734D692B438D692B434360F0
:1058100084614D684563026230BD00008FFFFEFF6A
:10582000002C014000340140004001400044014090
:105830000048014030B5056A25F010050562026A8E
:1058400043688469224D2C4024F440740D6844EA76
:10585000052422F020028D6842EA05121D4DA8425F
:1058600000D10FE01C4DA84200D10BE01B4DA84217
:1058700000D100BF1A4DA84200D100BF194DA84267
:1058800007D106E022F08002CD6842EA051222F03C
:105890004002104DA8420BD00F4DA84208D00F4D2A
:1058A000A84205D00E4DA84202D00E4DA84209D103
:1058B00023F4806323F400634D6943EA85038D6913
:1058C00043EA8503436084614D688563026230BDAD
:1058D000FF8FFFFE002C01400034014000400140DA
:1058E000004401400048014030B5056A25F4807548
:1058F0000562026A4368C469224D2C4024F0030407
:105900000D682C4322F400728D6842EA05221E4D78
:10591000A84200D10FE01D4DA84200D10BE01C4D64
:10592000A84200D100BF1B4DA84200D100BF1A4DB4
:10593000A84207D106E022F40062CD6842EA0522BF
:1059400022F48062104DA8420BD0104DA84208D01E
:105950000F4DA84205D00F4DA84202D00E4DA842CF
:1059600009D123F4805323F400534D6943EA05130E
:105970008D6943EA05134360C4614D68C5630262E3
:1059800030BD00008FFFFEFF002C014000340140BD
:1059900000400140004401400048014030B5056A24
:1059A00025F480550562026A4368C469224D2C4083
:1059B00024F440740D6844EA052422F400528D68F2
:1059C00042EA05321D4DA84200D10FE01C4DA8420D
:1059D00000D10BE01B4DA84200D100BF1A4DA842D8
:1059E00000D100BF194DA84207D106E022F40042C1
:1059F000CD6842EA053222F48042104DA8420BD015
:105A00000F4DA84208D00F4DA84205D00E4DA84218
:105A100002D00E4DA84209D123F4804323F4004361
:105A20004D6943EA85138D6943EA85134360C46178
:105A30004D680564026230BDFF8FFFFE002C0140FF
:105A40000034014000400140004401400048014052
:105A500030B5056A25F480350562026A4368046D35
:105A6000114D2C400D682C4322F400320D8942EA7E
:105A700005420E4DA8420BD00D4DA84208D00D4D49
:105A8000A84205D00C4DA84202D00C4DA84204D12A
:105A900023F480334D6943EA0523436004654D6870
:105AA0008564026230BD00008FFFFEFF002C0140C4
:105AB00000340140004001400044014000480140E2
:105AC00030B5056A25F480150562026A4368046DE5
:105AD000114D2C400D6844EA052422F400120D8972
